:060000000C9439000C9481
:1000060066000C9400000C9400000C9400000C9404
:1000160000000C9400000C9400000C9400000C945A
:1000260000000C9400000C946E000C9400000C94DC
:1000360000000C9400000C9400000C9400000C943A
:1000460000000C9400000C9400000C940000102793
:10005600E80364000A00010000100001100001001E
:10006600000000000400040066000000F894EE277B
:10007600ECBBF1E0FBBFEBBFE5BF8DE0A2E0BB2729
:10008600ED938A95E9F780E098E0A0E6ED93019775
:10009600E9F7EAE6F0E085919591009761F0A59180
:1000A600B59105901590BF01F00105900D9201974D
:1000B600E1F7FB01F0CFEFE5EDBFE8E0EEBFC0E60C
:1000C600D2E00C949600EA93FA93E1E0F0E02F0177
:1000D600F991E9911895EA93FA93EFB7EA93ECE070
:1000E600E2BFE1E0F0E0E415F505C1F4F301319675
:1000F6003F01E4E0F0E06E167F062CF4D89B02C0C8
:10010600D89801C0D89AE4E0F0E0E615F70531F496
:100116004424552466247724E0E0EBBBE991EFBF45
:10012600F991E9911895E1E0EABBE0E0EBBBE1BBB0
:10013600E4E0E2BBE5E0E3BFECE0E2BFE0E0ECBF19
:10014600E1E0E9BFEBB7E064EBBFE2E0E5BFE0E08A
:10015600E4BFE0E4EABF78940E94B300FDCFFFCF8E
:10016600E5B7EF78E5BFEFB778948895EFBF0895C8
:00000001FF
